:100000000C947E000C94A6000C94A6000C94A60000
:100010000C94A6000C94A6000C94A6000C94A600C8
:100020000C94A6000C94A6000C94A6000C94E60375
:100030000C94A6000C94A6000C94A6000C94A600A8
:100040000C9419050C94A6000C94B4030C948E0324
:100050000C94A6000C94A6000C94A6000C94A60088
:100060000C94A6000C94A600CC09CF09D109D5099F
:10007000D809DA09DC09F309F609F809FC09FF09CE
:10008000010A030A230A260A280A2C0A2F0A310A1F
:10009000330A490A4C0A4E0A500A530A550A590AA9
:1000A00000000000230026002900000000080002D4
:1000B0000100000304070000000000000000000031
:1000C0000000250028002B0000000000240027006D
:1000D0002A000404040404040404020202020202CA
:1000E00003030303030301020408102040800102FC
:1000F00004081020010204081020880B11241FBEE0
:10010000CFEFD8E0DEBFCDBF11E0A0E0B1E0EAEE76
:10011000F9E102C005900D92A433B107D9F726E0AA
:10012000A4E3B1E001C01D92AF3CB207E1F710E0DB
:10013000CEE7D0E004C02197FE010E94D40CCD3759
:10014000D107C9F70E9463050C94F30C0C940000CE
:10015000CF92DF92EF92FF920F931F93CF93DF9393
:100160006C017A018B01C0E0D0E0CE15DF0581F093
:10017000D8016D918D01D601ED91FC910190F08136
:10018000E02DC6010995892B11F02196EECF7E0155
:10019000C701DF91CF911F910F91FF90EF90DF90FA
:1001A000CF900895089580E090E00895FC01538D6C
:1001B000448D252F30E0842F90E0821B930B541741
:1001C00010F0CF96089501970895FC01918D828DCE
:1001D000981761F0828DDF01A80FB11D5D968C919B
:1001E000928D9F5F9F73928F90E008958FEF9FEFA6
:1001F0000895FC01918D828D981731F0828DE80F62
:10020000F11D858D90E008958FEF9FEF0895FC011B
:10021000918D228D892F90E0805C9F4F821B9109E8
:100220008F739927089582E196E00E94070121E0EB
:10023000892B09F420E0822F0895FC01848DDF01D1
:10024000A80FB11DA35ABF4F2C91848D90E0019649
:100250008F739927848FA689B7892C93A089B18938
:100260008C91837080648C93938D848D981306C0D9
:100270000288F389E02D80818F7D80830895EF923D
:10028000FF920F931F93CF93DF93EC0181E0888F50
:100290009B8D8C8D981305C0E889F989808185FD37
:1002A00026C0F62E0B8D10E00F5F1F4F0F73112726
:1002B000E02E8C8DE8120CC00FB607FCFACFE8894F
:1002C000F989808185FFF5CFCE010E941D01F1CF14
:1002D0008B8DFE01E80FF11DE35AFF4FF0829FB7AF
:1002E000F8940B8FEA89FB89808180620AC09FB7EE
:1002F000F894EE89FF896083E889F98980818370A9
:10030000806480839FBF81E090E0DF91CF911F9157
:100310000F91FF90EF900895CF93DF93EC01888DBC
:100320008823C9F0EA89FB89808185FD05C0A889F9
:10033000B9898C9186FD0FC00FB607FCF5CF80817F
:1003400085FFF2CFA889B9898C9185FFEDCFCE01C9
:100350000E941D01E7CFDF91CF91089580E090E0EA
:10036000892B29F00E94130181110C94000008953B
:10037000EF920F931F93F901DA013C912E2D2095F6
:1003800032233C9330813E293083FC01D80198E030
:1003900080E030E020E04C914E2189F02A95D9F799
:1003A00020E04C914E2159F02A95D9F720E84C9144
:1003B0004E2129F02A95D9F73A9561F717C047E001
:1003C0004A95F1F7000031E0550F4C914E2109F0AC
:1003D00051609A9529F45193839598E0681731F00C
:1003E00020E84C914E2111F72A95D9F71F910F91D2
:1003F000EF9008950F931F93F9012081202B208304
:10040000DA012C91202B2C9320814081202B30E08D
:1004100010E00095109550E004231523DC015D9158
:1004200048E00083550F40F474E07A95F1F720839B
:100430007AE07A95F1F705C07EE07A95F1F7000051
:1004400020834A9529F073E07A95F1F70000E9CF0F
:100450006A9529F071E07A95F1F70000E0CF72E03B
:100460007A95F1F700000000008374E07A95F1F7C7
:100470000000000020831F910F9108957F928F92BA
:100480009F92AF92BF92CF92DF92EF92FF920F9323
:100490001F93CF93DF93DB01642F5901F02E282F98
:1004A00030E0F901EA51FF4FE490F901EE52FF4FBD
:1004B000249130E0220F331FF901E853FF4FC5911B
:1004C000D491F901E254FF4FC590D490F901E05660
:1004D000FF4F859094907FB6F8940E2D9601AE0153
:1004E000CD010E94FA0184019601AE016F2DC50174
:1004F0000E94B8017FBEDF91CF911F910F91FF90B5
:10050000EF90DF90CF90BF90AF909F908F907F90B3
:1005100008953F924F925F926F927F928F929F9237
:10052000AF92BF92CF92DF92EF92FF920F931F9301
:10053000CF93DF9300D01F92CDB7DEB73B014A01C6
:10054000290190E0FC01EA51FF4FF490FC01EE52CA
:10055000FF4F849190E0880F991FFC01E853FF4FF3
:10056000C590D490FC01E254FF4FA590B490FC01DB
:10057000E056FF4F059114913FB6F89419821A8204
:100580001B82EF2C9501A60163E0CE0101960E942B
:10059000B8018130B9F48981811109C00F2D95010D
:1005A000A60163E0C3010E94FA0181E02BC08134FF
:1005B00011F50F2D9501A6016AE0C4010E94FA0110
:1005C00082E020C08330B9F489818034A1F48A812B
:1005D000833089F40F2D9501A60168E0C2010E94C5
:1005E000FA018B818370813041F0823041F0833099
:1005F00041F486E007C080E005C084E003C085E0E8
:1006000001C083E03FBE0F900F900F90DF91CF911C
:100610001F910F91FF90EF90DF90CF90BF90AF9020
:100620009F908F907F906F905F904F903F90089534
:1006300080910001882379F080910906811104C01E
:1006400080910A06882339F010920201109201016C
:1006500010920001089580910101909102019C0186
:100660002A50310929303105A0F42091FC052223BC
:1006700021F020913401222341F02091FB05222317
:1006800041F020913401222321F081E08093FF0585
:1006900008959C012C5131092930310580F42091B5
:1006A000FC05223020F020913401222371F32091A7
:1006B000FB05223020F0209134012111E6CF9C016E
:1006C0002E5231092930310580F42091FC05233068
:1006D00020F0209134012223C1F22091FB05233028
:1006E00020F0209134012111D0CF80549109099735
:1006F00080F48091FC05843020F0809134018823BF
:1007000021F28091FB05843020F080913401811129
:10071000BCCF1092FF0508950E94EE0C1F920F921D
:100720000FB60F9211242F933F934F935F936F93C4
:100730007F938F939F93AF93BF93EF93FF9382E148
:1007400096E00E941D01FF91EF91BF91AF919F91A3
:100750008F917F916F915F914F913F912F910F906A
:100760000FBE0F901F9018951F920F920FB60F9209
:1007700011242F938F939F93EF93FF93E091220681
:10078000F09123068081E0912806F091290682FDF0
:1007900012C0908180912B068F5F8F7320912C0661
:1007A000821751F0E0912B06F0E0EE5EF94F958F45
:1007B00080932B0601C08081FF91EF919F918F91D3
:1007C0002F910F900FBE0F901F9018951F920F92B0
:1007D0000FB60F9211242F938F939F9390913C010A
:1007E00081E0892780933C018091F4059091F50583
:1007F000813921E092072CF401969093F5058093BE
:10080000F40580913D0190913E01843291052CF4D4
:10081000019690933E0180933D018091010190915A
:1008200002018A3491052CF4019690930201809381
:1008300001019F918F912F910F900FBE0F901F90EC
:100840001895009769F0FC0101900020E9F73197B5
:10085000AF01481B590BBC0182E196E00C94A80043
:1008600080E090E008958F929F92AF92BF920F9395
:100870001F93CF93DF93CDB7DEB7A1970FB6F89450
:10088000DEBF0FBECDBF19A2423008F44AE08E0190
:100890000F5D1F4F842E912CA12CB12CA50194012A
:1008A0000E948F0CE62FB901CA0101501109EA30EC
:1008B00014F4E05D01C0E95CD801EC93232B242BF8
:1008C000252B61F7C8010E942104A1960FB6F89468
:1008D000DEBF0FBECDBFDF91CF911F910F91BF90B3
:1008E000AF909F908F900895CF92DF92EF92FF92FA
:1008F000CF93DF936C01990FEE08FF08F7FE19C044
:100900006DE282E196E00E943F01EC0166277727C5
:10091000CB016C197D098E099F094AE00E943304BE
:100920008C0F9D1FDF91CF91FF90EF90DF90CF90C4
:1009300008954AE0C701B601DF91CF91FF90EF9093
:10094000DF90CF900C94330481E391E00C94210468
:10095000CF93DF9390E0FC01EA51FF4F2491FC011B
:10096000EE52FF4F84918823C1F090E0880F991FC9
:10097000FC01E853FF4FC591D491FC01E254FF4FB5
:10098000A591B4919FB7F8948881322F3095832335
:100990008883EC91E22BEC939FBFDF91CF91089578
:1009A00090E0FC01E655FF4F2491FC01EA51FF4F16
:1009B0003491FC01EE52FF4FE491EE23B9F1222372
:1009C00039F1233091F038F42130A9F0223001F5CB
:1009D00084B58F7D12C0273091F02830A1F02430EB
:1009E000B9F4809180008F7D03C0809180008F7763
:1009F000809380000DC084B58F7784BD09C080913D
:100A0000B0008F7703C08091B0008F7D8093B000DD
:100A1000F0E0EE0FFF1FE056FF4FA591B491EC916F
:100A2000E32381E090E021F480E0089580E090E00D
:100A300008951F920F920FB60F9211242F933F9398
:100A40008F939F93AF93BF938091CB069091CC06E9
:100A5000A091CD06B091CE063091CA0623E0230FB7
:100A60002D3720F40196A11DB11D05C026E8230FE6
:100A70000296A11DB11D2093CA068093CB069093C8
:100A8000CC06A093CD06B093CE068091C606909179
:100A9000C706A091C806B091C9060196A11DB11D57
:100AA0008093C6069093C706A093C806B093C90664
:100AB000BF91AF919F918F913F912F910F900FBE5A
:100AC0000F901F901895CF93DF93CDB7DEB7679740
:100AD0000FB6F894DEBF0FBECDBF789484B58260A8
:100AE00084BD84B5816084BD85B5826085BD85B5D2
:100AF000816085BD80916E00816080936E00109250
:100B000081008091810082608093810080918100CA
:100B1000816080938100809180008160809380005B
:100B20008091B10084608093B1008091B0008160B9
:100B30008093B00080917A00846080937A008091E5
:100B40007A00826080937A0080917A00816080933D
:100B50007A0080917A00806880937A001092C100B8
:100B60001092FE051092FD05E0912206F0912306F9
:100B700082E08083E0911E06F0911F061082E091D2
:100B80002006F091210680E1808310922A06E091F0
:100B90002606F091270686E08083E0912406F091F6
:100BA0002506808180618083E0912406F0912506EE
:100BB000808188608083E0912406F0912506808101
:100BC00080688083E0912406F091250680818F7DE6
:100BD0008083F8941092800010928100109285001A
:100BE0001092840082E194E09093890080938800C1
:100BF0008091810088608093810080918100846071
:100C00008093810080916F00826080936F00789460
:100C100084E00E94A80485E00E94A804412C512C85
:100C200032015394DD24DA94A0E8CA2E8091B006F4
:100C30009091B106892BC1F09091B20693FB992750
:100C400090F98091C50620E4298723E02A879B87B5
:100C500008E02DEB36E043E0BE01675F7F4F0E9466
:100C60003E028830F9F022C08091C506198603E063
:100C700020EB36E041E0BE01675F7F4F0E943E02FD
:100C80008330A1F48091C50631E439870AE023EB73
:100C900036E041E0BE01675F7F4F0E943E028A302E
:100CA00059F20AC08091BD0685FF06C01092B006B9
:100CB0001092B1061092B20688E0EDEBF6E0DE018C
:100CC000119601900D928A95E1F788E0FE01319628
:100CD000DE01199601900D928A95E1F7FA80F0FAFB
:100CE000EE24E0F8F1FAFF24F0F82B803C808D81AF
:100CF0008F8B9E819E8B2F812C8B38853D8B898598
:100D0000982F91709093110681FB992790F99093F9
:100D1000100682FB992790F990930F0683FB992781
:100D200090F990930E061A85E0FA10F9F0FA11F98D
:100D30001A8714FB992790F990930D0691E0282FBC
:100D400020712A8B84FF90E090930C0601E0312FF4
:100D500038703B8B13FF00E000930B0684E00E9489
:100D6000D00421E030E0892B11F020E030E049018F
:100D70008E0C911CBB24B3948114910409F4B12C02
:100D8000B0920A0685E00E94D00421E030E0892B71
:100D900011F020E030E0C9018F0D911D7C01AA24E3
:100DA000A394892B09F4A12CA092090691E0998BB8
:100DB000912F947012FF198A29892093080616FB37
:100DC000882780F98093070615FB112710F91093E7
:100DD00006063C89309305068D898093040620928F
:100DE0000306309202062F89209301063E89309334
:100DF00000068091050183FB882780F98093FF0519
:100E000081149104B1F080913801811112C0809158
:100E1000FC058F5F8093FC05833029F420923A0112
:100E20003092390170C4843008F46DC41092FC050E
:100E30006AC4E114F10479F08091370181110BC08B
:100E40008091FB058F5F853018F48093FB0521C0EE
:100E50001092FB051EC0992369F080913601811123
:100E600009C09091F90581E089278093F9051092D6
:100E7000F8050FC08B89882361F0809135018111BD
:100E800008C01092F9059091F80581E089278093B8
:100E9000F8058114910409F036C480910101909104
:100EA00002018A34910544F480913401811104C017
:100EB000109234010E941803E114F10421F0809192
:100EC0003701882359F080910101909102018A3401
:100ED00091054CF480913401882329F081E08093BE
:100EE00034010E941803EF2829F4892819F481E0BD
:100EF00080930001B0923801A092370199899093B4
:100F0000360100933501209105018091FB059091F8
:100F10003B0123FF0CC091110AC09091FC05911177
:100F200002C0882361F091E090933B0106C09923B1
:100F300021F02A89211110923B018430B9F180916E
:100F4000FC05813071F480913B01882379F1809117
:100F50003C01882319F01092030628C0D0920306A2
:100F600025C08230A9F480913B018823F9F00E94CA
:100F7000060CA30192010E945D0C609303060E947F
:100F8000060CA30192010E945D0C609302060EC044
:100F9000833061F480913B01882341F080913A01D4
:100FA0008093030680913901809302062091FB050E
:100FB000213051F480913B01882309F44FC0809186
:100FC0003C01809307064AC0223051F480913B01D6
:100FD000882309F443C080913C0180930E063EC0F3
:100FE000233081F480913B018823C1F180913C0141
:100FF0008823A1F1C09203061092020681E080933B
:1010000010062CC0243041F58091FA05811108C0EA
:1010100010923E0110923D0181E08093FA051EC0BE
:1010200080913D0190913E0105974CF481E08093C1
:101030000706D092050631EB309302060FC081E01F
:1010400080930706D092050680913C01809310069C
:1010500081EB8093020602C01092FA058091F90597
:10106000882309F43AC18091F70581110CC01092D0
:10107000F5051092F40581E08093F7053091430166
:1010800080E090E015C180911106882329F08091BD
:10109000430181608093430180911006882329F0E9
:1010A0008091430182608093430180910F068823E1
:1010B00029F08091430184608093430180910E0662
:1010C000882329F0809143018860809343018091B7
:1010D0000D06882329F080914301806180934301AC
:1010E00080910706882329F08091430180628093D4
:1010F000430180910606882329F080914301806492
:101100008093430180910C06882329F0809143014C
:1011100080688093430180910106853410F491E04A
:1011200023C0909103063BEB390F3D3010F492E061
:101130001BC03EEA390F343110F493E015C03AE990
:10114000390F353310F494E00FC035E6390F3431E0
:1011500010F495E009C031E5390F3D3010F496E008
:1011600003C09C3B18F097E09093420190910206D7
:10117000953410F491E01EC03BEB390F393010F478
:1011800092E018C032EB390F383110F493E012C0FE
:101190003AE9390F353310F494E00CC035E6390FD5
:1011A000393110F495E006C0945B983010F496E065
:1011B00001C097E090934101853410F481E01EC096
:1011C0009BEB980F9D3010F482E018C09EEA980FB8
:1011D000943110F483E012C09AE9980F953310F41B
:1011E00084E00CC095E6980F943110F485E006C0B9
:1011F0008F5A8D3010F486E001C087E08093400163
:1012000080910006853410F481E01EC09BEB980F9E
:10121000993010F482E018C092EB980F983110F4D6
:1012200083E012C09AE9980F953310F484E00CC063
:1012300095E6980F993110F485E006C0845B8830FC
:1012400010F486E001C087E080933F016091F405CF
:101250007091F505A0914201A7709091410197709E
:101260003091400180913F018770AB01440F551FC1
:10127000460F571FFA01EC5BFE4F609143016083FC
:10128000FA01EB5BFE4F990F990F990F432F42958F
:10129000440F440F407CA92BA42BA08332FB992739
:1012A00090F93181307F880F392B382B3183E6CE8E
:1012B00041E050E060E070E0082E04C0440F551F8C
:1012C000661F771F0A94D2F7409534230196883021
:1012D000910571F730934301F8C08091F805882398
:1012E00009F4EFC08091F605811108C01092F50550
:1012F0001092F40581E08093F605E7C08091F40533
:101300009091F505803931E093070CF0D5C0AC0120
:10131000440F551FFA01E80FF91FEC5BFE4F3081B7
:101320003093430130FF03C061E06093110631FF49
:1013300003C061E06093100632FF03C061E0609378
:101340000F0633FF03C061E060930E0634FF03C055
:1013500061E060930D0635FF03C061E0609307060E
:1013600036FF03C061E06093060637FF03C031E03B
:1013700030930C06FA01E80FF91FEB5BFE4FE0819A
:10138000E7708E2E912CF4013197E730F105B0F41F
:10139000EC5CFF4F0C94D40C109203060FC035E4A4
:1013A00001C032E53093030609C0C092030606C0AF
:1013B0003EEAF8CF3BEBF6CFD0920306FA01E80FF6
:1013C000F91FEB5BFE4FE081E695E695E695E77049
:1013D0008E2E912CF4013197E730F105B0F4E55CE5
:1013E000FF4F0C94D40C109202060FC035E401C0DC
:1013F0003EE43093020609C0C092020606C033EBF9
:10140000F8CF3BEBF6CFD0920206DA01A80FB91F56
:10141000AB5BBE4FEC913E2F3295369536953370CF
:101420001196EC91E170EE2EEE0CEE0CEE2DE32B0E
:101430008E2E912CF4013197E730F105B0F4EE5B7C
:10144000FF4F0C94D40C109201060FC035E401C07C
:1014500032E53093010609C0C092010606C03EEA9B
:10146000F8CF3BEBF6CFD0920106840F951FFC011D
:10147000EA5BFE4F80818695E82FE7708E2F90E023
:10148000FC013197E730F10500F5E75BFF4F0C9465
:10149000D40C1092000619C085E408C08EE406C082
:1014A000C092000612C083EB01C08BEB8093000654
:1014B0000CC0D092000609C01092F5051092F405F8
:1014C00004C01092F7051092F605809110019091DA
:1014D000110690FB80F99091100690FB81F9909194
:1014E0000F0690FB82F990910E0690FB83F9809392
:1014F00010019091110130910D0630FB94F99093F9
:1015000011019091FC05911108C0211106C0909124
:101510000C0690FB84F98093100180911101887F63
:10152000877F8093110120910406253618F480915D
:10153000060601C081E08195809317019091050610
:10154000953618F48091070601C081E0819580935B
:101550001601253618F42091060601C021E080917D
:10156000110120FB85F980931101953618F49091B3
:10157000070601C091E08091110190FB86F98093EC
:1015800011018091030680931201809102068093DD
:1015900013018091010680931401809100068093CD
:1015A00015018091B2069091FF0590FB83F980931D
:1015B000B2068091100185FD35C01FB7F89420E177
:1015C00031E046E051E063E071E08091AF060E94B7
:1015D0008902813051F420E131E046E051E063E0DE
:1015E00071E08091AF060E948902823051F420E1BF
:1015F00031E046E051E063E071E08091AF060E9487
:1016000089021FBF833021F480910501877F05C0C7
:10161000843031F48091050188608093050102C017
:10162000853091F32091FD053091FE05C90165E0FB
:1016300070E00E94C00C892B09F05CC080911106FB
:1016400090E00E9474040E94A4048091100690E02F
:101650000E9474040E94A40480910F0690E00E94EE
:1016600074040E94A40480910E0690E00E94740409
:101670000E94A40480910D0690E00E9474040E94D0
:10168000A4048091070690E00E9474040E94A404C0
:101690008091060690E00E9474040E94A404609168
:1016A000030670E080E090E04AE00E9433040E946C
:1016B000A4046091020670E080E090E04AE00E949D
:1016C00033040E94A4046091010670E080E090E081
:1016D0004AE00E9433040E94A4046091000670E076
:1016E00080E090E04AE00E9433048EE291E00E94A4
:1016F000210406C02F5F3F4F3093FE052093FD0568
:101700000E94AE0193CA809138018111C6CBD0CB23
:10171000E2E1F6E01382128288EE93E0A0E0B0E00E
:1017200084839583A683B78380E291E0918380834D
:1017300085EC90E09587848784EC90E09787868796
:1017400080EC90E0918B808B81EC90E0938B828B8E
:1017500082EC90E0958B848B86EC90E0978B868B67
:10176000118E128E138E148E82E08093C50683E054
:101770008093AF0608958F929F92AF92BF92CF92BF
:10178000DF92EF92FF92CF93DF93EC016881798132
:101790008A819B81611571058105910521F464E2BF
:1017A00079ED8BE597E02DE133EF41E050E00E94C9
:1017B0005D0C49015A019B01AC01A7EAB1E40E940A
:1017C0007C0C6B017C01ACEEB4EFA50194010E948E
:1017D0008A0CDC01CB018C0D9D1DAE1DBF1DB7FF1A
:1017E00003C00197A109B04888839983AA83BB836A
:1017F000BC01CD019F77DF91CF91FF90EF90DF90FB
:10180000CF90BF90AF909F908F9008958F929F92AE
:10181000AF92BF92CF92DF92EF92FF926091180148
:101820007091190180911A0190911B016115710548
:101830008105910521F464E279ED8BE597E02DE1D6
:1018400033EF41E050E00E945D0C49015A019B01D9
:10185000AC01A7EAB1E40E947C0C6B017C01ACEE08
:10186000B4EFA50194010E948A0CDC01CB018C0D20
:101870009D1DAE1DBF1DB7FF03C00197A109B04854
:101880008093180190931901A0931A01B0931B0142
:10189000BC01CD019F77FF90EF90DF90CF90BF907C
:1018A000AF909F908F9008956093180170931901E5
:1018B00080931A0190931B010895052E97FB1EF447
:1018C00000940E94740C57FD07D00E948F0C07FCF7
:1018D00003D04EF40C94740C50954095309521959E
:1018E0003F4F4F4F5F4F089590958095709561954C
:1018F0007F4F8F4F9F4F08950E94B10CA59F900D71
:10190000B49F900DA49F800D911D11240895B7FFE1
:101910000C947C0C0E947C0C821B930B0895A1E21A
:101920001A2EAA1BBB1BFD010DC0AA1FBB1FEE1F59
:10193000FF1FA217B307E407F50720F0A21BB30BA4
:10194000E40BF50B661F771F881F991F1A9469F720
:1019500060957095809590959B01AC01BD01CF017C
:101960000895A29FB001B39FC001A39F700D811D78
:101970001124911DB29F700D811D1124911D089598
:1019800097FB072E16F4009407D077FD09D00E942C
:10199000DA0C07FC05D03EF4909581959F4F089591
:1019A000709561957F4F0895EE0FFF1F0590F4919C
:1019B000E02D0994AA1BBB1B51E107C0AA1FBB1F46
:1019C000A617B70710F0A61BB70B881F991F5A95CB
:1019D000A9F780959095BC01CD01089581E090E034
:0A19E000F8940C94F30CF894FFCF78
:1019EA000149000900030080808080801F1F0000D9
:1019FA000080808080801F1F01000000000000001E
:101A0A003F01A800D6008C010701E500F9000D0A84
:041A1A00002C00009C
:00000001FF
