:100000000C9474000C949C000C949C000C949C0028
:100010000C949C000C949C000C949C000C949C00F0
:100020000C949C000C949C000C949C000C9439043F
:100030000C949C000C949C000C949C000C949C00D0
:100040000C9497030C949C000C9407040C94E1030B
:100050000C949C000C949C000C949C000C949C00B0
:100060000C949C000C949C000D08100812081608B3
:1000700019081B081E08360839083D0840084308BF
:100080004608490868086B086D0871087408760806
:1000900079088F089208960899089C089F08A2087A
:1000A00000000000230026002900000000002500B9
:1000B00028002B0000000000240027002A00040470
:1000C0000404040404040202020202020303030300
:1000D00003030102040810204080010204081020DC
:1000E0000102040810205C0411241FBECFEFD8E0E9
:1000F000DEBFCDBF11E0A0E0B1E0E6E3F5E102C074
:1001000005900D92A033B107D9F726E0A0E3B1E046
:1001100001C01D92A63CB207E1F710E0C4E7D0E0B1
:1001200004C02197FE010E947A0AC337D107C9F79C
:100130000E948F040C94990A0C940000CF92DF92D5
:10014000EF92FF920F931F93CF93DF936C017A018D
:100150008B01C0E0D0E0CE15DF0581F0D8016D91B4
:100160008D01D601ED91FC910190F081E02DC60149
:100170000995892B11F02196EECF7E01C701DF9101
:10018000CF911F910F91FF90EF90DF90CF90089546
:10019000089580E090E00895FC01538D448D252F53
:1001A00030E0842F90E0821B930B541710F0CF9611
:1001B000089501970895FC01918D828D981761F043
:1001C000828DDF01A80FB11D5D968C91928D9F5F8E
:1001D0009F73928F90E008958FEF9FEF0895FC0139
:1001E000918D828D981731F0828DE80FF11D858DEC
:1001F00090E008958FEF9FEF0895FC01918D228D7F
:10020000892F90E0805C9F4F821B91098F73992703
:10021000089582E196E00E94FD0021E0892B09F417
:1002200020E0822F0895FC01848DDF01A80FB11D0D
:10023000A35ABF4F2C91848D90E001968F7399271C
:10024000848FA689B7892C93A089B1898C918370FA
:1002500080648C93938D848D981306C00288F389F3
:10026000E02D80818F7D80830895EF92FF920F9320
:100270001F93CF93DF93EC0181E0888F9B8D8C8D52
:10028000981305C0E889F989808185FD26C0F62E7E
:100290000B8D10E00F5F1F4F0F731127E02E8C8D19
:1002A000E8120CC00FB607FCFACFE889F989808103
:1002B00085FFF5CFCE010E941301F1CF8B8DFE019A
:1002C000E80FF11DE35AFF4FF0829FB7F8940B8FB0
:1002D000EA89FB89808180620AC09FB7F894EE8921
:1002E000FF896083E889F9898081837080648083D5
:1002F0009FBF81E090E0DF91CF911F910F91FF9020
:10030000EF900895CF93DF93EC01888D8823C9F097
:10031000EA89FB89808185FD05C0A889B9898C910E
:1003200086FD0FC00FB607FCF5CF808185FFF2CFA9
:10033000A889B9898C9185FFEDCFCE010E94130168
:10034000E7CFDF91CF91089580E090E0892B29F0ED
:100350000E94090181110C9400000895EF920F93FF
:100360001F93F901DA013C912E2D209532233C9305
:1003700030813E293083FC01D80198E080E030E0F4
:1003800020E04C914E2189F02A95D9F720E04C913C
:100390004E2159F02A95D9F720E84C914E2129F0A9
:1003A0002A95D9F73A9561F717C047E04A95F1F7D2
:1003B000000031E0550F4C914E2109F051609A95A3
:1003C00029F45193839598E0681731F020E84C9117
:1003D0004E2111F72A95D9F71F910F91EF900895AB
:1003E0000F931F93F9012081202B2083DA012C9198
:1003F000202B2C9320814081202B30E010E00095B1
:10040000109550E004231523DC015D9148E0008342
:10041000550F40F474E07A95F1F720837AE07A95ED
:10042000F1F705C07EE07A95F1F7000020834A9548
:1004300029F073E07A95F1F70000E9CF6A9529F089
:1004400071E07A95F1F70000E0CF72E07A95F1F76C
:1004500000000000008374E07A95F1F700000000CE
:1004600020831F910F9108957F928F929F92AF9258
:10047000BF92CF92DF92EF92FF920F931F93CF9391
:10048000DF93DB01642F5901F02E282F30E0F901B2
:10049000EE52FF4FE490F901E254FF4F249130E017
:1004A000220F331FF901EC54FF4FC591D491F9018C
:1004B000E655FF4FC590D490F901E056FF4F859067
:1004C00094907FB6F8940E2D9601AE01CD010E9456
:1004D000F00184019601AE016F2DC5010E94AE01AD
:1004E0007FBEDF91CF911F910F91FF90EF90DF9032
:1004F000CF90BF90AF909F908F907F9008953F9244
:100500004F925F926F927F928F929F92AF92BF9223
:10051000CF92DF92EF92FF920F931F93CF93DF93CF
:1005200000D01F92CDB7DEB73B014A01290190E010
:10053000FC01EE52FF4FF490FC01E254FF4F849116
:1005400090E0880F991FFC01EC54FF4FC590D490A8
:10055000FC01E655FF4FA590B490FC01E056FF4F1B
:10056000059114913FB6F89419821A821B82EF2CE0
:100570009501A60163E0CE0101960E94AE01813093
:10058000B9F48981811109C00F2D9501A60163E09D
:10059000C3010E94F00181E02BC0813411F50F2DC1
:1005A0009501A6016AE0C4010E94F00182E020C02A
:1005B0008330B9F489818034A1F48A81833089F44D
:1005C0000F2D9501A60168E0C2010E94F0018B8108
:1005D0008370813041F0823041F0833041F486E015
:1005E00007C080E005C084E003C085E001C083E06F
:1005F0003FBE0F900F900F90DF91CF911F910F9101
:10060000FF90EF90DF90CF90BF90AF909F908F9032
:100610007F906F905F904F903F900895009769F0A2
:10062000FC0101900020E9F73197AF01481B590BFD
:10063000BC0182E196E00C949E0080E090E0089579
:100640008F929F92AF92BF920F931F93CF93DF939E
:10065000CDB7DEB7A1970FB6F894DEBF0FBECDBF02
:1006600019A2423008F44AE08E010F5D1F4F842E1C
:10067000912CA12CB12CA50194010E94350AE62FE2
:10068000B901CA0101501109EA3014F4E05D01C05A
:10069000E95CD801EC93232B242B252B61F7C801AF
:1006A0000E940E03A1960FB6F894DEBF0FBECDBF19
:1006B000DF91CF911F910F91BF90AF909F908F903E
:1006C00008958BE291E00C940E03CF92DF92EF92AB
:1006D000FF92CF93DF936C01990FEE08FF08F7FEAE
:1006E00019C06DE282E196E00E943501EC016627B7
:1006F0007727CB016C197D098E099F094AE00E947A
:1007000020038C0F9D1FDF91CF91FF90EF90DF9022
:10071000CF9008954AE0C701B601DF91CF91FF90D5
:10072000EF90DF90CF900C9420030E94940A1F92C8
:100730000F920FB60F9211242F933F938F939F9395
:10074000AF93BF9380910E0690910F06A091100673
:10075000B091110630910D0623E0230F2D3720F4C0
:100760000196A11DB11D05C026E8230F0296A11D0B
:10077000B11D20930D0680930E0690930F06A09353
:100780001006B09311068091090690910A06A09177
:100790000B06B0910C060196A11DB11D80930906B0
:1007A00090930A06A0930B06B0930C06BF91AF91ED
:1007B0009F918F913F912F910F900FBE0F901F909F
:1007C00018951F920F920FB60F9211242F933F93FB
:1007D0004F935F936F937F938F939F93AF93BF9349
:1007E000EF93FF9382E196E00E941301FF91EF9156
:1007F000BF91AF919F918F917F916F915F914F9139
:100800003F912F910F900FBE0F901F9018951F9240
:100810000F920FB60F9211242F938F939F93EF9304
:10082000FF93E0912206F09123068081E091280653
:10083000F091290682FD12C0908180912B068F5F76
:100840008F7320912C06821751F0E0912B06F0E077
:10085000EE5EF94F958F80932B0601C08081FF914A
:10086000EF919F918F912F910F900FBE0F901F903E
:1008700018951F920F920FB60F9211242F938F93FA
:100880009F939091360181E0892780933601809172
:10089000EC059091ED05813921E092072CF4019649
:1008A0009093ED058093EC059F918F912F910F9080
:1008B0000FBE0F901F901895E2E1F6E013821282AE
:1008C00088EE93E0A0E0B0E084839583A683B783AD
:1008D0008DE191E09183808385EC90E0958784871A
:1008E00084EC90E09787868780EC90E0918B808BFA
:1008F00081EC90E0938B828B82EC90E0958B848BE3
:1009000086EC90E0978B868B118E128E138E148E50
:1009100082E08093C50683E08093AF060895CF936D
:10092000DF93CDB7DEB7A5970FB6F894DEBF0FBE45
:10093000CDBF789484B5826084BD84B5816084BD68
:1009400085B5826085BD85B5816085BD80916E006D
:10095000816080936E00109281008091810082609E
:1009600080938100809181008160809381008091DB
:1009700080008160809380008091B10084608093CA
:10098000B1008091B00081608093B00080917A00C6
:10099000846080937A0080917A00826080937A00EC
:1009A00080917A00816080937A0080917A008068DB
:1009B00080937A001092C1001092F5051092F40510
:1009C000E0912206F091230682E08083E0911E06EA
:1009D000F0911F061082E0912006F091210680E13F
:1009E000808310922A06E0912606F091270686E081
:1009F0008083E0912406F0912506808180618083C8
:100A0000E0912406F0912506808188608083E09142
:100A10002406F0912506808180688083E091240679
:100A2000F091250680818F7D8083F894109280005C
:100A300010928100109285001092840082E194E06F
:100A400090938900809388008091810088608093D2
:100A500081008091810084608093810080916F008B
:100A6000826080936F00789461E4562E70E4472E84
:100A7000812C912C540193941FEFFBEBFF2EA3EBE1
:100A80007A2EB0E8EB2E0EE4602E85E0C82ED12C35
:100A90008091B0069091B106892BB9F09091B20681
:100AA00093FB992790F98091C506498223E02A8318
:100AB0009B8308E02DEB36E043E0BE016F5F7F4F84
:100AC0000E9434028830F1F021C08091C50619825D
:100AD00003E020EB36E041E0BE016F5F7F4F0E94F4
:100AE0003402833099F48091C50659820AE023EBE1
:100AF00036E041E0BE016F5F7F4F0E9434028A30D2
:100B000069F20AC08091BD0685FF06C01092B0064A
:100B10001092B1061092B20688E0EDEBF6E0DE012D
:100B2000569601900D928A95E1F788E0FE0176963F
:100B3000DE015E9601900D928A95E1F788E0FE0154
:100B40007E96A1E0B6E001900D928A95E1F7809142
:100B50000106982F91709093000681FB992790F9D8
:100B60009093FF0582FB992790F99093FE0583FBF4
:100B7000882780F98093FD058091020684FB9927E0
:100B800090F99093FC0591E0209107062D3808F428
:100B900090E09093FB0591E0209108062D3808F431
:100BA00090E09093FA05309103063093F905209177
:100BB00004062093F805909105069093F70590910F
:100BC00006069093F605482F417080FF15C090915E
:100BD0003301911111C09091F3059F5F9093F3053C
:100BE000933029F4309335012093340133C094308D
:100BF00088F11092F3052EC081FF0FC09091320151
:100C000091110BC09091F2059F5F933018F490936F
:100C1000F20520C01092F2051DC082FF0DC0909118
:100C20003101911109C02091F10591E09227909333
:100C3000F1051092F0050EC083FF0CC090913001B9
:100C4000911108C01092F1052091F00591E09227D2
:100C50009093F0054093330181FB992790F990938D
:100C6000320182FB992790F99093310183FB882709
:100C700080F98093300180910206887F877F80937E
:100C800002068091F305813051F48091360188236A
:100C900019F01092030620C0109303061DC0823085
:100CA00089F40E94AC09A50194010E94030A609393
:100CB00003060E94AC09A50194010E94030A6093F7
:100CC00004060AC0833041F4809135018093030605
:100CD00080913401809304068091F205813069F49B
:100CE00090913601892F81958093070680910206A5
:100CF00090FB86F9809302060AC0823041F480910D
:100D000001069091360190FB83F980930106809152
:100D1000F105882309F411C18091EF05811108C004
:100D20001092ED051092EC0581E08093EF0516C25C
:100D30008091010680FF05C090913B0191609093E6
:100D40003B0181FF05C090913B01926090933B0174
:100D500082FF05C090913B01946090933B0183FF1B
:100D600005C090913B01986090933B0190910206E1
:100D700094FF05C020913B01206120933B0196FF29
:100D800005C020913B01206220933B0195FF05C0E7
:100D900090913B01906490933B0184FF05C080914A
:100DA0003B01806880933B0180910306853410F4F9
:100DB00081E01EC09BEB980F9D3010F482E018C0BC
:100DC0009EEA980F943110F483E012C09AE9980FCC
:100DD000953310F484E00CC095E6980F943110F42C
:100DE00085E006C08F5A8D3010F486E001C087E0A0
:100DF00080933A0180910406853410F481E01EC08E
:100E00009BEB980F993010F482E018C092EB980F8A
:100E1000983110F483E012C09AE9980F953310F4DA
:100E200084E00CC095E6980F993110F485E006C077
:100E3000845B883010F486E001C087E0809339013C
:100E400080910506853410F481E01EC09BEB980F5D
:100E50009D3010F482E018C09EEA980F943110F48F
:100E600083E012C09AE9980F953310F484E00CC027
:100E700095E6980F943110F485E006C08F5A8D30B6
:100E800010F486E001C087E0809338018091060667
:100E9000853410F481E01EC09BEB980F993010F45C
:100EA00082E018C092EB980F983110F483E012C0E2
:100EB0009AE9980F953310F484E00CC095E6980FEA
:100EC000993110F485E006C0845B883010F486E028
:100ED00001C087E0809337016091EC057091ED05CA
:100EE00030913A0137704091390147709091380143
:100EF000209137012770FB01EE0FFF1FE60FF71F50
:100F0000DF01A45CBE4F80913B018C93E35CFE4FFC
:100F1000440F440F440F892F8295880F880F807CDF
:100F2000342B382B308392FB992790F98181807F75
:100F3000220F892B822B818311C18091F005882398
:100F400009F408C18091EE05811108C01092ED05E9
:100F50001092EC0581E08093EE0500C18091EC05D4
:100F60009091ED05803921E092070CF0EEC09C01D4
:100F7000220F331FF901E80FF91FE45CFE4F408197
:100F800040933B0140FF05C05091010651605093D2
:100F9000010641FF05C050910106526050930106C1
:100FA00042FF05C05091010654605093010643FF73
:100FB00005C05091010658605093010644FF05C0DA
:100FC0005091020650615093020645FF05C05091B2
:100FD000020650645093020646FF05C05091020677
:100FE00050625093020647FF05C0409101064061E0
:100FF00040930106F901E80FF91FE35CFE4F4081C1
:10100000E42FE7704E2F50E0FA013197E730F105F9
:10101000B8F4EC5CFF4F0C947A0A1092030610C0EF
:1010200045E401C042E5409303060AC0E09203068E
:1010300007C04EEAF8CFF092030602C010930306F1
:10104000F901E80FF91FE35CFE4F40814695469594
:101050004695E42FE7704E2F50E0FA013197E730C4
:10106000F105C8F4E55CFF4F0C947A0A109204066F
:1010700012C045E4409304060EC0609204060BC003
:10108000E092040608C07092040605C0F0920406BF
:1010900002C010930406D901A80FB91FA35CBE4F6C
:1010A000EC915E2F529556955695537011964C9132
:1010B0004170440F440FE42FE52B4E2F50E0FA010E
:1010C0003197E730F105B8F4EE5BFF4F0C947A0AE4
:1010D0001092050610C045E401C042E540930506A4
:1010E0000AC0E092050607C04EEAF8CFF092050666
:1010F00002C010930506820F931FFC01E25CFE4FB5
:1011000080818695E82FE7708E2F90E0FC01319763
:10111000E730F10518F5E75BFF4F0C947A0A10925F
:1011200006061CC085E48093060618C06092060679
:1011300015C0E092060612C0709206060FC0F0922B
:1011400006060CC01093060609C01092ED05109219
:10115000EC0504C01092EF051092EE0585E1E4E085
:10116000F1E0DE01119601900D928A95E1F788E099
:10117000E1E0F6E0DE011E9601900D928A95E1F71E
:101180008E8585FD2EC00FB7F8949E01225F3F4FDC
:10119000AE014C5F5F4FBE016F5F7F4F8091AF0626
:1011A0000E947F02813069F49E01225F3F4FAE01B1
:1011B0004C5F5F4FBE016F5F7F4F8091AF060E9413
:1011C0007F02823069F49E01225F3F4FAE014C5F87
:1011D0005F4FBE016F5F7F4F8091AF060E947F021D
:1011E0000FBF2091F4053091F505C901B6010E94A9
:1011F000660A892B09F05CC08091000690E00E948D
:1012000065030E9461038091FF0590E00E946503E1
:101210000E9461038091FE0590E00E9465030E9498
:1012200061038091FD0590E00E9465030E946103C7
:101230008091FC0590E00E9465030E94610380910B
:10124000FB0590E00E9465030E9461038091FA050E
:1012500090E00E9465030E9461036091F90570E0CF
:1012600080E090E04AE00E9420030E9461036091C8
:10127000F80570E080E090E04AE00E9420030E94C0
:1012800061036091F70570E080E090E04AE00E9421
:1012900020030E9461036091F60570E080E090E019
:1012A0004AE00E9420038DE291E00E940E0306C0F6
:1012B0002F5F3F4F3093F5052093F4050E94A40162
:1012C000E7CB8F929F92AF92BF92CF92DF92EF9235
:1012D000FF92CF93DF93EC01688179818A819B81B2
:1012E000611571058105910521F464E279ED8BE5C5
:1012F00097E02DE133EF41E050E00E94030A4901FD
:101300005A019B01AC01A7EAB1E40E94220A6B01D9
:101310007C01ACEEB4EFA50194010E94300ADC011F
:10132000CB018C0D9D1DAE1DBF1DB7FF03C00197E6
:10133000A109B04888839983AA83BB83BC01CD01EE
:101340009F77DF91CF91FF90EF90DF90CF90BF908C
:10135000AF909F908F9008958F929F92AF92BF927F
:10136000CF92DF92EF92FF926091000170910101A4
:10137000809102019091030161157105810591052C
:1013800021F464E279ED8BE597E02DE133EF41E064
:1013900050E00E94030A49015A019B01AC01A7EAEF
:1013A000B1E40E94220A6B017C01ACEEB4EFA5010E
:1013B00094010E94300ADC01CB018C0D9D1DAE1DF5
:1013C000BF1DB7FF03C00197A109B048809300017A
:1013D00090930101A0930201B0930301BC01CD01E0
:1013E0009F77FF90EF90DF90CF90BF90AF909F904E
:1013F0008F90089560930001709301018093020122
:10140000909303010895052E97FB1EF400940E940B
:101410001A0A57FD07D00E94350A07FC03D04EF484
:101420000C941A0A50954095309521953F4F4F4F97
:101430005F4F089590958095709561957F4F8F4F80
:101440009F4F08950E94570AA59F900DB49F900D3D
:10145000A49F800D911D11240895B7FF0C94220ABA
:101460000E94220A821B930B0895A1E21A2EAA1B46
:10147000BB1BFD010DC0AA1FBB1FEE1FFF1FA21744
:10148000B307E407F50720F0A21BB30BE40BF50B41
:10149000661F771F881F991F1A9469F760957095CA
:1014A000809590959B01AC01BD01CF010895A29F4D
:1014B000B001B39FC001A39F700D811D1124911D28
:1014C000B29F700D811D1124911D089597FB072E69
:1014D00016F4009407D077FD09D00E94800A07FC1B
:1014E00005D03EF4909581959F4F08957095619534
:1014F0007F4F0895EE0FFF1F0590F491E02D0994A2
:10150000AA1BBB1B51E107C0AA1FBB1FA617B70729
:1015100010F0A61BB70B881F991F5A95A9F7809545
:101520009095BC01CD01089581E090E0F8940C9471
:06153000990AF894FFCFB8
:10153600010000000900030080808080801F1F00DA
:10154600000080808080801F1F0000000035019E03
:1015560000CC008201FD00DB00EF002C000D0A002C
:00000001FF
